{
  "contractName": "GoFundMe",
  "abi": [
    {
      "inputs": [],
      "stateMutability": "nonpayable",
      "type": "constructor"
    },
    {
      "inputs": [],
      "name": "admin",
      "outputs": [
        {
          "internalType": "address",
          "name": "",
          "type": "address"
        }
      ],
      "stateMutability": "view",
      "type": "function",
      "constant": true
    },
    {
      "inputs": [
        {
          "internalType": "uint256",
          "name": "",
          "type": "uint256"
        }
      ],
      "name": "campaignExists",
      "outputs": [
        {
          "internalType": "bool",
          "name": "",
          "type": "bool"
        }
      ],
      "stateMutability": "view",
      "type": "function",
      "constant": true
    },
    {
      "inputs": [
        {
          "internalType": "uint256",
          "name": "",
          "type": "uint256"
        }
      ],
      "name": "campaigns",
      "outputs": [
        {
          "internalType": "address payable",
          "name": "owner",
          "type": "address"
        },
        {
          "internalType": "uint256",
          "name": "date",
          "type": "uint256"
        },
        {
          "internalType": "string",
          "name": "name",
          "type": "string"
        },
        {
          "internalType": "uint256",
          "name": "id",
          "type": "uint256"
        },
        {
          "internalType": "uint256",
          "name": "amount",
          "type": "uint256"
        },
        {
          "internalType": "uint256",
          "name": "targetFunding",
          "type": "uint256"
        }
      ],
      "stateMutability": "view",
      "type": "function",
      "constant": true
    },
    {
      "inputs": [
        {
          "internalType": "address",
          "name": "",
          "type": "address"
        },
        {
          "internalType": "uint256",
          "name": "",
          "type": "uint256"
        }
      ],
      "name": "contributors",
      "outputs": [
        {
          "internalType": "bool",
          "name": "",
          "type": "bool"
        }
      ],
      "stateMutability": "view",
      "type": "function",
      "constant": true
    },
    {
      "inputs": [
        {
          "internalType": "address",
          "name": "",
          "type": "address"
        },
        {
          "internalType": "uint256",
          "name": "",
          "type": "uint256"
        }
      ],
      "name": "fundingPayments",
      "outputs": [
        {
          "internalType": "uint256",
          "name": "",
          "type": "uint256"
        }
      ],
      "stateMutability": "view",
      "type": "function",
      "constant": true
    },
    {
      "inputs": [],
      "name": "nextId",
      "outputs": [
        {
          "internalType": "uint256",
          "name": "",
          "type": "uint256"
        }
      ],
      "stateMutability": "view",
      "type": "function",
      "constant": true
    },
    {
      "inputs": [
        {
          "internalType": "uint256",
          "name": "",
          "type": "uint256"
        }
      ],
      "name": "withdrawed",
      "outputs": [
        {
          "internalType": "bool",
          "name": "",
          "type": "bool"
        }
      ],
      "stateMutability": "view",
      "type": "function",
      "constant": true
    },
    {
      "inputs": [
        {
          "internalType": "uint256",
          "name": "_duration",
          "type": "uint256"
        },
        {
          "internalType": "string",
          "name": "name",
          "type": "string"
        },
        {
          "internalType": "uint256",
          "name": "targetFunding",
          "type": "uint256"
        }
      ],
      "name": "createCampaign",
      "outputs": [],
      "stateMutability": "nonpayable",
      "type": "function"
    },
    {
      "inputs": [
        {
          "internalType": "uint256",
          "name": "_id",
          "type": "uint256"
        }
      ],
      "name": "fundCampaign",
      "outputs": [],
      "stateMutability": "payable",
      "type": "function",
      "payable": true
    },
    {
      "inputs": [
        {
          "internalType": "uint256",
          "name": "_id",
          "type": "uint256"
        }
      ],
      "name": "withdraw",
      "outputs": [],
      "stateMutability": "nonpayable",
      "type": "function"
    },
    {
      "inputs": [
        {
          "internalType": "uint256",
          "name": "_id",
          "type": "uint256"
        }
      ],
      "name": "refund",
      "outputs": [],
      "stateMutability": "nonpayable",
      "type": "function"
    }
  ],
  "bytecode": "0x60806040526000805534801561001457600080fd5b5033600160006101000a81548173ffffffffffffffffffffffffffffffffffffffff021916908373ffffffffffffffffffffffffffffffffffffffff160217905550611661806100656000396000f3fe60806040526004361061009c5760003560e01c806361b8ce8c1161006457806361b8ce8c146102dc57806373d659b31461030757806392bd38bc1461037a5780639a93edd4146103a8578063f3aa119314610484578063f851a440146104d75761009c565b8063141961bc146100a1578063234364e8146101a4578063278ecde1146102135780632e1a7d4d1461024e5780633b594a6814610289575b600080fd5b3480156100ad57600080fd5b506100da600480360360208110156100c457600080fd5b810190808035906020019092919050505061052e565b604051808773ffffffffffffffffffffffffffffffffffffffff1673ffffffffffffffffffffffffffffffffffffffff16815260200186815260200180602001858152602001848152602001838152602001828103825286818151815260200191508051906020019080838360005b83811015610164578082015181840152602081019050610149565b50505050905090810190601f1680156101915780820380516001836020036101000a031916815260200191505b5097505050505050505060405180910390f35b3480156101b057600080fd5b506101fd600480360360408110156101c757600080fd5b81019080803573ffffffffffffffffffffffffffffffffffffffff16906020019092919080359060200190929190505050610622565b6040518082815260200191505060405180910390f35b34801561021f57600080fd5b5061024c6004803603602081101561023657600080fd5b8101908080359060200190929190505050610647565b005b34801561025a57600080fd5b506102876004803603602081101561027157600080fd5b8101908080359060200190929190505050610af4565b005b34801561029557600080fd5b506102c2600480360360208110156102ac57600080fd5b8101908080359060200190929190505050610f33565b604051808215151515815260200191505060405180910390f35b3480156102e857600080fd5b506102f1610f53565b6040518082815260200191505060405180910390f35b34801561031357600080fd5b506103606004803603604081101561032a57600080fd5b81019080803573ffffffffffffffffffffffffffffffffffffffff16906020019092919080359060200190929190505050610f59565b604051808215151515815260200191505060405180910390f35b6103a66004803603602081101561039057600080fd5b8101908080359060200190929190505050610f88565b005b3480156103b457600080fd5b50610482600480360360608110156103cb57600080fd5b8101908080359060200190929190803590602001906401000000008111156103f257600080fd5b82018360208201111561040457600080fd5b8035906020019184600183028401116401000000008311171561042657600080fd5b91908080601f016020809104026020016040519081016040528093929190818152602001838380828437600081840152601f19601f8201169050808301925050505050505091929192908035906020019092919050505061127b565b005b34801561049057600080fd5b506104bd600480360360208110156104a757600080fd5b8101908080359060200190929190505050611478565b604051808215151515815260200191505060405180910390f35b3480156104e357600080fd5b506104ec611498565b604051808273ffffffffffffffffffffffffffffffffffffffff1673ffffffffffffffffffffffffffffffffffffffff16815260200191505060405180910390f35b60026020528060005260406000206000915090508060000160009054906101000a900473ffffffffffffffffffffffffffffffffffffffff1690806001015490806002018054600181600116156101000203166002900480601f0160208091040260200160405190810160405280929190818152602001828054600181600116156101000203166002900480156106065780601f106105db57610100808354040283529160200191610606565b820191906000526020600020905b8154815290600101906020018083116105e957829003601f168201915b5050505050908060030154908060040154908060050154905086565b6005602052816000526040600020602052806000526040600020600091509150505481565b80600115156003600083815260200190815260200160002060009054906101000a900460ff161515146106e2576040517f08c379a00000000000000000000000000000000000000000000000000000000081526004018080602001828103825260148152602001807f63616d706169676e206d7573742065786973742100000000000000000000000081525060200191505060405180910390fd5b816002600082815260200190815260200160002060010154421161076e576040517f08c379a00000000000000000000000000000000000000000000000000000000081526004018080602001828103825260198152602001807f63616d706169676e206d757374206861766520656e646564210000000000000081525060200191505060405180910390fd5b3373ffffffffffffffffffffffffffffffffffffffff166002600085815260200190815260200160002060000160009054906101000a900473ffffffffffffffffffffffffffffffffffffffff1673ffffffffffffffffffffffffffffffffffffffff161415610829576040517f08c379a000000000000000000000000000000000000000000000000000000000815260040180806020018281038252602b815260200180611601602b913960400191505060405180910390fd5b600260008481526020019081526020016000206001015442116108b4576040517f08c379a00000000000000000000000000000000000000000000000000000000081526004018080602001828103825260198152602001807f63616d706169676e206d757374206861766520656e646564210000000000000081525060200191505060405180910390fd5b6000600560003373ffffffffffffffffffffffffffffffffffffffff1673ffffffffffffffffffffffffffffffffffffffff1681526020019081526020016000206000858152602001908152602001600020541161097a576040517f08c379a000000000000000000000000000000000000000000000000000000000815260040180806020018281038252601a8152602001807f6d75737420636f6e7472696275746520746f20726566756e642100000000000081525060200191505060405180910390fd5b60026000848152602001908152602001600020600501546002600085815260200190815260200160002060040154106109fe576040517f08c379a00000000000000000000000000000000000000000000000000000000081526004018080602001828103825260278152602001806115da6027913960400191505060405180910390fd5b60003390508073ffffffffffffffffffffffffffffffffffffffff166108fc600560003373ffffffffffffffffffffffffffffffffffffffff1673ffffffffffffffffffffffffffffffffffffffff1681526020019081526020016000206000878152602001908152602001600020549081150290604051600060405180830381858888f19350505050158015610a99573d6000803e3d6000fd5b50600560003373ffffffffffffffffffffffffffffffffffffffff1673ffffffffffffffffffffffffffffffffffffffff16815260200190815260200160002060008581526020019081526020016000206000905550505050565b80600115156003600083815260200190815260200160002060009054906101000a900460ff16151514610b8f576040517f08c379a00000000000000000000000000000000000000000000000000000000081526004018080602001828103825260148152602001807f63616d706169676e206d7573742065786973742100000000000000000000000081525060200191505060405180910390fd5b8160026000828152602001908152602001600020600101544211610c1b576040517f08c379a00000000000000000000000000000000000000000000000000000000081526004018080602001828103825260198152602001807f63616d706169676e206d757374206861766520656e646564210000000000000081525060200191505060405180910390fd5b3373ffffffffffffffffffffffffffffffffffffffff166002600085815260200190815260200160002060000160009054906101000a900473ffffffffffffffffffffffffffffffffffffffff1673ffffffffffffffffffffffffffffffffffffffff1614610cd5576040517f08c379a00000000000000000000000000000000000000000000000000000000081526004018080602001828103825260278152602001806115b36027913960400191505060405180910390fd5b60026000848152602001908152602001600020600101544211610d60576040517f08c379a00000000000000000000000000000000000000000000000000000000081526004018080602001828103825260198152602001807f63616d706169676e206d757374206861766520656e646564210000000000000081525060200191505060405180910390fd5b600115156006600085815260200190815260200160002060009054906101000a900460ff1615151415610dde576040517f08c379a000000000000000000000000000000000000000000000000000000000815260040180806020018281038252602681526020018061158d6026913960400191505060405180910390fd5b600260008481526020019081526020016000206005015460026000858152602001908152602001600020600401541015610e63576040517f08c379a00000000000000000000000000000000000000000000000000000000081526004018080602001828103825260298152602001806115646029913960400191505060405180910390fd5b60006002600085815260200190815260200160002060000160009054906101000a900473ffffffffffffffffffffffffffffffffffffffff1690506000600260008681526020019081526020016000206004015490508173ffffffffffffffffffffffffffffffffffffffff166108fc829081150290604051600060405180830381858888f19350505050158015610eff573d6000803e3d6000fd5b5060016006600087815260200190815260200160002060006101000a81548160ff0219169083151502179055505050505050565b60036020528060005260406000206000915054906101000a900460ff1681565b60005481565b60046020528160005260406000206020528060005260406000206000915091509054906101000a900460ff1681565b80600115156003600083815260200190815260200160002060009054906101000a900460ff16151514611023576040517f08c379a00000000000000000000000000000000000000000000000000000000081526004018080602001828103825260148152602001807f63616d706169676e206d7573742065786973742100000000000000000000000081525060200191505060405180910390fd5b3373ffffffffffffffffffffffffffffffffffffffff166002600084815260200190815260200160002060000160009054906101000a900473ffffffffffffffffffffffffffffffffffffffff1673ffffffffffffffffffffffffffffffffffffffff1614156110fb576040517f08c379a000000000000000000000000000000000000000000000000000000000815260040180806020018281038252601e8152602001807f63616e6e6f742066756e6420796f7572206f776e2063616d706169676e21000081525060200191505060405180910390fd5b60026000838152602001908152602001600020600101544210611186576040517f08c379a00000000000000000000000000000000000000000000000000000000081526004018080602001828103825260178152602001807f63616d706169676e20616c726561647920656e6465642100000000000000000081525060200191505060405180910390fd5b600060026000848152602001908152602001600020905034816004016000828254019250508190555034600560003373ffffffffffffffffffffffffffffffffffffffff1673ffffffffffffffffffffffffffffffffffffffff1681526020019081526020016000206000858152602001908152602001600020600082825401925050819055506001600460003373ffffffffffffffffffffffffffffffffffffffff1673ffffffffffffffffffffffffffffffffffffffff168152602001908152602001600020600085815260200190815260200160002060006101000a81548160ff021916908315150217905550505050565b60011515600360008054815260200190815260200160002060009054906101000a900460ff1615151415611317576040517f08c379a00000000000000000000000000000000000000000000000000000000081526004018080602001828103825260188152602001807f63616d706169676e20616c72656164792065786973747321000000000000000081525060200191505060405180910390fd5b600083420190506040518060c001604052803373ffffffffffffffffffffffffffffffffffffffff16815260200182815260200184815260200160005481526020016000815260200183815250600260008054815260200190815260200160002060008201518160000160006101000a81548173ffffffffffffffffffffffffffffffffffffffff021916908373ffffffffffffffffffffffffffffffffffffffff1602179055506020820151816001015560408201518160020190805190602001906113e59291906114be565b50606082015181600301556080820151816004015560a082015181600501559050506001600360008054815260200190815260200160002060006101000a81548160ff0219169083151502179055506000600660008054815260200190815260200160002060006101000a81548160ff021916908315150217905550600080815480929190600101919050555050505050565b60066020528060005260406000206000915054906101000a900460ff1681565b600160009054906101000a900473ffffffffffffffffffffffffffffffffffffffff1681565b828054600181600116156101000203166002900490600052602060002090601f016020900481019282601f106114ff57805160ff191683800117855561152d565b8280016001018555821561152d579182015b8281111561152c578251825591602001919060010190611511565b5b50905061153a919061153e565b5090565b61156091905b8082111561155c576000816000905550600101611544565b5090565b9056fe63616d706169676e206d75737420686176652073756363656564656420746f20776974686472617721616c726561647920776974686472617765642066726f6d20746869732063616d706169676e21796f75206d757374206f776e20746869732063616d706169676e20746f2077697468647261772163616d706169676e206d7573742068617665206661696c656420666f72206120726566756e642163616e6e6f7420676574206120726566756e642066726f6d20796f7572206f776e2063616d706169676e21a2646970667358221220443b018b00067e886abed63d32231747f1dd946de0987a6f6b31994b2b9bb5d964736f6c63430006000033",
  "source": "pragma solidity ^0.6.0;\r\n\r\ncontract GoFundMe  {\r\n    uint public nextId = 0;\r\n    address public admin;\r\n    mapping(uint => Campaign) public campaigns;\r\n    mapping(uint => bool) public campaignExists;\r\n    mapping(address => mapping(uint => bool)) public contributors;\r\n    mapping(address => mapping(uint => uint)) public fundingPayments;\r\n    mapping(uint => bool) public withdrawed;\r\n\r\n    constructor() public {\r\n        admin = msg.sender;\r\n    }\r\n\r\n    struct Campaign {\r\n        address payable owner;\r\n        uint date;\r\n        string name;\r\n        uint id;\r\n        uint amount;\r\n        uint targetFunding;\r\n    }\r\n\r\n    //Creates a GoFundMe Campaign\r\n    function createCampaign(uint _duration, string memory name, uint targetFunding) public {\r\n        require(campaignExists[nextId] != true, 'campaign already exists!');\r\n        uint endDate = now + _duration;\r\n        campaigns[nextId] = Campaign(msg.sender,  endDate, name, nextId, 0, targetFunding);\r\n        campaignExists[nextId] = true;\r\n        withdrawed[nextId] = false;\r\n        nextId++;\r\n    }\r\n\r\n    //Fund a GoFundMe Campaign\r\n    function fundCampaign(uint _id) campaignDoesExist(_id) external payable {\r\n        //Cannot fund own campaign\r\n        require(campaigns[_id].owner != msg.sender, 'cannot fund your own campaign!');\r\n        //Cannot fund campaign that ended\r\n        require(now < campaigns[_id].date, 'campaign already ended!');\r\n        //Fetch the campaign\r\n        Campaign storage _camp = campaigns[_id];\r\n        //Increment the amount\r\n        _camp.amount += msg.value;\r\n        //Track the funding payments for that address\r\n        fundingPayments[msg.sender][_id] += msg.value;\r\n        //Track Contributors\r\n        contributors[msg.sender][_id] = true;  \r\n    }\r\n\r\n    //Withdraw from owners GoFundMe Campaign after it ends\r\n    function withdraw(uint _id) campaignDoesExist(_id) onlyCampaignEnded(_id) public {\r\n        require(campaigns[_id].owner == msg.sender, 'you must own this campaign to withdraw!');\r\n        require(now > campaigns[_id].date, 'campaign must have ended!');\r\n        require(withdrawed[_id] != true, 'already withdrawed from this campaign!');\r\n        require(campaigns[_id].amount >= campaigns[_id].targetFunding, 'campaign must have succeeded to withdraw!');\r\n        //Fetch campaign owner\r\n        address payable campOwner = campaigns[_id].owner;\r\n        //Fetch amount to be sent to campaign owner\r\n        uint campAmount = campaigns[_id].amount;\r\n        //Transfer the Ether to the campaign owner\r\n        campOwner.transfer(campAmount);\r\n        //Change withdrawed to true\r\n        withdrawed[_id] = true;\r\n    }\r\n\r\n    //Refunds the contributers if the campaign fails\r\n    function refund(uint _id) campaignDoesExist(_id) onlyCampaignEnded(_id) public {\r\n        //Cannot refund your own campaign\r\n        require(campaigns[_id].owner != msg.sender, 'cannot get a refund from your own campaign!');\r\n        //Campaign must have ended\r\n        require(now > campaigns[_id].date, 'campaign must have ended!');\r\n        //Must have contributed\r\n        require(fundingPayments[msg.sender][_id] > 0, 'must contribute to refund!');\r\n        //Campaign must have failed for a refund\r\n        require(campaigns[_id].amount < campaigns[_id].targetFunding, 'campaign must have failed for a refund!');\r\n        //Fetch the address requesting a refund\r\n        address payable refunder = msg.sender;\r\n        //Refund the refunder\r\n        refunder.transfer(fundingPayments[msg.sender][_id]);\r\n        //Clear the refunder contributions for that campaign\r\n        delete fundingPayments[msg.sender][_id];\r\n    }\r\n\r\n        //Only Admin modifier\r\n        modifier onlyAdmin() {\r\n        require(msg.sender == admin, 'only admin');\r\n        _;\r\n    }\r\n\r\n        //Campaign ended modifier\r\n        modifier onlyCampaignEnded(uint _id) {\r\n        require(now > campaigns[_id].date, 'campaign must have ended!');\r\n        _;\r\n    }\r\n        //Campaign exists modifier\r\n        modifier campaignDoesExist(uint _id) {\r\n        require(campaignExists[_id] == true, 'campaign must exist!');\r\n        _;\r\n    }\r\n}",
  "sourcePath": "C:/Users/jarha/Desktop/gofundme-blockchain/contracts/GoFundMe.sol",
  "compiler": {
    "name": "solc",
    "version": "0.6.0+commit.26b70077.Emscripten.clang"
  },
  "schemaVersion": "3.0.20",
  "updatedAt": "2021-01-23T16:07:19.124Z",
  "networkType": "ethereum",
  "devdoc": {
    "methods": {}
  },
  "userdoc": {
    "methods": {}
  }
}