{
  "contractName": "GoFundMe",
  "abi": [
    {
      "inputs": [],
      "stateMutability": "nonpayable",
      "type": "constructor"
    },
    {
      "inputs": [],
      "name": "admin",
      "outputs": [
        {
          "internalType": "address",
          "name": "",
          "type": "address"
        }
      ],
      "stateMutability": "view",
      "type": "function",
      "constant": true
    },
    {
      "inputs": [
        {
          "internalType": "uint256",
          "name": "",
          "type": "uint256"
        }
      ],
      "name": "campaignExists",
      "outputs": [
        {
          "internalType": "bool",
          "name": "",
          "type": "bool"
        }
      ],
      "stateMutability": "view",
      "type": "function",
      "constant": true
    },
    {
      "inputs": [
        {
          "internalType": "uint256",
          "name": "",
          "type": "uint256"
        }
      ],
      "name": "campaigns",
      "outputs": [
        {
          "internalType": "address payable",
          "name": "owner",
          "type": "address"
        },
        {
          "internalType": "uint256",
          "name": "date",
          "type": "uint256"
        },
        {
          "internalType": "string",
          "name": "name",
          "type": "string"
        },
        {
          "internalType": "uint256",
          "name": "id",
          "type": "uint256"
        },
        {
          "internalType": "uint256",
          "name": "amount",
          "type": "uint256"
        },
        {
          "internalType": "uint256",
          "name": "targetFunding",
          "type": "uint256"
        }
      ],
      "stateMutability": "view",
      "type": "function",
      "constant": true
    },
    {
      "inputs": [
        {
          "internalType": "address",
          "name": "",
          "type": "address"
        },
        {
          "internalType": "uint256",
          "name": "",
          "type": "uint256"
        }
      ],
      "name": "contributors",
      "outputs": [
        {
          "internalType": "bool",
          "name": "",
          "type": "bool"
        }
      ],
      "stateMutability": "view",
      "type": "function",
      "constant": true
    },
    {
      "inputs": [
        {
          "internalType": "address",
          "name": "",
          "type": "address"
        },
        {
          "internalType": "uint256",
          "name": "",
          "type": "uint256"
        }
      ],
      "name": "fundingPayments",
      "outputs": [
        {
          "internalType": "uint256",
          "name": "",
          "type": "uint256"
        }
      ],
      "stateMutability": "view",
      "type": "function",
      "constant": true
    },
    {
      "inputs": [],
      "name": "nextId",
      "outputs": [
        {
          "internalType": "uint256",
          "name": "",
          "type": "uint256"
        }
      ],
      "stateMutability": "view",
      "type": "function",
      "constant": true
    },
    {
      "inputs": [
        {
          "internalType": "uint256",
          "name": "",
          "type": "uint256"
        }
      ],
      "name": "withdrawed",
      "outputs": [
        {
          "internalType": "bool",
          "name": "",
          "type": "bool"
        }
      ],
      "stateMutability": "view",
      "type": "function",
      "constant": true
    },
    {
      "inputs": [
        {
          "internalType": "uint256",
          "name": "_duration",
          "type": "uint256"
        },
        {
          "internalType": "string",
          "name": "name",
          "type": "string"
        },
        {
          "internalType": "uint256",
          "name": "targetFunding",
          "type": "uint256"
        }
      ],
      "name": "createCampaign",
      "outputs": [],
      "stateMutability": "nonpayable",
      "type": "function"
    },
    {
      "inputs": [
        {
          "internalType": "uint256",
          "name": "_id",
          "type": "uint256"
        }
      ],
      "name": "fundCampaign",
      "outputs": [],
      "stateMutability": "payable",
      "type": "function",
      "payable": true
    },
    {
      "inputs": [
        {
          "internalType": "uint256",
          "name": "_id",
          "type": "uint256"
        }
      ],
      "name": "withdraw",
      "outputs": [],
      "stateMutability": "nonpayable",
      "type": "function"
    }
  ],
  "bytecode": "0x60806040526000805534801561001457600080fd5b5033600160006101000a81548173ffffffffffffffffffffffffffffffffffffffff021916908373ffffffffffffffffffffffffffffffffffffffff160217905550610fd5806100656000396000f3fe6080604052600436106100915760003560e01c806373d659b31161005957806373d659b3146102c157806392bd38bc146103345780639a93edd414610362578063f3aa11931461043e578063f851a4401461049157610091565b8063141961bc14610096578063234364e8146101995780632e1a7d4d146102085780633b594a681461024357806361b8ce8c14610296575b600080fd5b3480156100a257600080fd5b506100cf600480360360208110156100b957600080fd5b81019080803590602001909291905050506104e8565b604051808773ffffffffffffffffffffffffffffffffffffffff1673ffffffffffffffffffffffffffffffffffffffff16815260200186815260200180602001858152602001848152602001838152602001828103825286818151815260200191508051906020019080838360005b8381101561015957808201518184015260208101905061013e565b50505050905090810190601f1680156101865780820380516001836020036101000a031916815260200191505b5097505050505050505060405180910390f35b3480156101a557600080fd5b506101f2600480360360408110156101bc57600080fd5b81019080803573ffffffffffffffffffffffffffffffffffffffff169060200190929190803590602001909291905050506105dc565b6040518082815260200191505060405180910390f35b34801561021457600080fd5b506102416004803603602081101561022b57600080fd5b8101908080359060200190929190505050610601565b005b34801561024f57600080fd5b5061027c6004803603602081101561026657600080fd5b810190808035906020019092919050505061092c565b604051808215151515815260200191505060405180910390f35b3480156102a257600080fd5b506102ab61094c565b6040518082815260200191505060405180910390f35b3480156102cd57600080fd5b5061031a600480360360408110156102e457600080fd5b81019080803573ffffffffffffffffffffffffffffffffffffffff16906020019092919080359060200190929190505050610952565b604051808215151515815260200191505060405180910390f35b6103606004803603602081101561034a57600080fd5b8101908080359060200190929190505050610981565b005b34801561036e57600080fd5b5061043c6004803603606081101561038557600080fd5b8101908080359060200190929190803590602001906401000000008111156103ac57600080fd5b8201836020820111156103be57600080fd5b803590602001918460018302840111640100000000831117156103e057600080fd5b91908080601f016020809104026020016040519081016040528093929190818152602001838380828437600081840152601f19601f82011690508083019250505050505050919291929080359060200190929190505050610c72565b005b34801561044a57600080fd5b506104776004803603602081101561046157600080fd5b8101908080359060200190929190505050610e67565b604051808215151515815260200191505060405180910390f35b34801561049d57600080fd5b506104a6610e87565b604051808273ffffffffffffffffffffffffffffffffffffffff1673ffffffffffffffffffffffffffffffffffffffff16815260200191505060405180910390f35b60026020528060005260406000206000915090508060000160009054906101000a900473ffffffffffffffffffffffffffffffffffffffff1690806001015490806002018054600181600116156101000203166002900480601f0160208091040260200160405190810160405280929190818152602001828054600181600116156101000203166002900480156105c05780601f10610595576101008083540402835291602001916105c0565b820191906000526020600020905b8154815290600101906020018083116105a357829003601f168201915b5050505050908060030154908060040154908060050154905086565b6005602052816000526040600020602052806000526040600020600091509150505481565b600115156003600083815260200190815260200160002060009054906101000a900460ff1615151461069b576040517f08c379a00000000000000000000000000000000000000000000000000000000081526004018080602001828103825260148152602001807f63616d706169676e206d7573742065786973742100000000000000000000000081525060200191505060405180910390fd5b3373ffffffffffffffffffffffffffffffffffffffff166002600083815260200190815260200160002060000160009054906101000a900473ffffffffffffffffffffffffffffffffffffffff1673ffffffffffffffffffffffffffffffffffffffff1614610755576040517f08c379a0000000000000000000000000000000000000000000000000000000008152600401808060200182810382526027815260200180610f796027913960400191505060405180910390fd5b600260008281526020019081526020016000206001015442116107e0576040517f08c379a00000000000000000000000000000000000000000000000000000000081526004018080602001828103825260198152602001807f63616d706169676e206d757374206861766520656e646564210000000000000081525060200191505060405180910390fd5b600115156006600083815260200190815260200160002060009054906101000a900460ff161515141561085e576040517f08c379a0000000000000000000000000000000000000000000000000000000008152600401808060200182810382526026815260200180610f536026913960400191505060405180910390fd5b60006002600083815260200190815260200160002060000160009054906101000a900473ffffffffffffffffffffffffffffffffffffffff1690506000600260008481526020019081526020016000206004015490508173ffffffffffffffffffffffffffffffffffffffff166108fc829081150290604051600060405180830381858888f193505050501580156108fa573d6000803e3d6000fd5b5060016006600085815260200190815260200160002060006101000a81548160ff021916908315150217905550505050565b60036020528060005260406000206000915054906101000a900460ff1681565b60005481565b60046020528160005260406000206020528060005260406000206000915091509054906101000a900460ff1681565b600115156003600083815260200190815260200160002060009054906101000a900460ff16151514610a1b576040517f08c379a00000000000000000000000000000000000000000000000000000000081526004018080602001828103825260148152602001807f63616d706169676e206d7573742065786973742100000000000000000000000081525060200191505060405180910390fd5b3373ffffffffffffffffffffffffffffffffffffffff166002600083815260200190815260200160002060000160009054906101000a900473ffffffffffffffffffffffffffffffffffffffff1673ffffffffffffffffffffffffffffffffffffffff161415610af3576040517f08c379a000000000000000000000000000000000000000000000000000000000815260040180806020018281038252601e8152602001807f63616e6e6f742066756e6420796f7572206f776e2063616d706169676e21000081525060200191505060405180910390fd5b60026000828152602001908152602001600020600101544210610b7e576040517f08c379a00000000000000000000000000000000000000000000000000000000081526004018080602001828103825260178152602001807f63616d706169676e20616c726561647920656e6465642100000000000000000081525060200191505060405180910390fd5b600060026000838152602001908152602001600020905034816004016000828254019250508190555034600560003373ffffffffffffffffffffffffffffffffffffffff1673ffffffffffffffffffffffffffffffffffffffff1681526020019081526020016000206000848152602001908152602001600020600082825401925050819055506001600460003373ffffffffffffffffffffffffffffffffffffffff1673ffffffffffffffffffffffffffffffffffffffff168152602001908152602001600020600084815260200190815260200160002060006101000a81548160ff0219169083151502179055505050565b60011515600360008054815260200190815260200160002060009054906101000a900460ff1615151415610d0e576040517f08c379a00000000000000000000000000000000000000000000000000000000081526004018080602001828103825260188152602001807f63616d706169676e20616c72656164792065786973747321000000000000000081525060200191505060405180910390fd5b6040518060c001604052803373ffffffffffffffffffffffffffffffffffffffff16815260200184815260200183815260200160005481526020016000815260200182815250600260008054815260200190815260200160002060008201518160000160006101000a81548173ffffffffffffffffffffffffffffffffffffffff021916908373ffffffffffffffffffffffffffffffffffffffff160217905550602082015181600101556040820151816002019080519060200190610dd5929190610ead565b50606082015181600301556080820151816004015560a082015181600501559050506001600360008054815260200190815260200160002060006101000a81548160ff0219169083151502179055506000600660008054815260200190815260200160002060006101000a81548160ff0219169083151502179055506000808154809291906001019190505550505050565b60066020528060005260406000206000915054906101000a900460ff1681565b600160009054906101000a900473ffffffffffffffffffffffffffffffffffffffff1681565b828054600181600116156101000203166002900490600052602060002090601f016020900481019282601f10610eee57805160ff1916838001178555610f1c565b82800160010185558215610f1c579182015b82811115610f1b578251825591602001919060010190610f00565b5b509050610f299190610f2d565b5090565b610f4f91905b80821115610f4b576000816000905550600101610f33565b5090565b9056fe616c726561647920776974686472617765642066726f6d20746869732063616d706169676e21796f75206d757374206f776e20746869732063616d706169676e20746f20776974686472617721a2646970667358221220c54b688dd73843033158e674b196305b27e9e13cc75380999a7a641c6199398c64736f6c63430006000033",
  "source": "pragma solidity ^0.6.0;\r\n\r\ncontract GoFundMe  {\r\n    uint public nextId = 0;\r\n    address public admin;\r\n    mapping(uint => Campaign) public campaigns;\r\n    mapping(uint => bool) public campaignExists;\r\n    mapping(address => mapping(uint => bool)) public contributors;\r\n    mapping(address => mapping(uint => uint)) public fundingPayments;\r\n    mapping(uint => bool) public withdrawed;\r\n\r\n    constructor() public {\r\n        admin = msg.sender;\r\n    }\r\n\r\n    struct Campaign {\r\n        address payable owner;\r\n        uint date;\r\n        string name;\r\n        uint id;\r\n        uint amount;\r\n        uint targetFunding;\r\n    }\r\n\r\n    //Creates a GoFundMe Campaign\r\n    function createCampaign(uint _duration, string memory name, uint targetFunding) public {\r\n        require(campaignExists[nextId] != true, 'campaign already exists!');\r\n        campaigns[nextId] = Campaign(msg.sender,  _duration, name, nextId, 0, targetFunding);\r\n        campaignExists[nextId] = true;\r\n        withdrawed[nextId] = false;\r\n        nextId++;\r\n    }\r\n\r\n    //Fund a GoFundMe Campaign\r\n    function fundCampaign(uint _id) external payable {\r\n        //Campaign must exist\r\n        require(campaignExists[_id] == true, 'campaign must exist!');\r\n        //Cannot fund own campaign\r\n        require(campaigns[_id].owner != msg.sender, 'cannot fund your own campaign!');\r\n        //Cannot fund campaign that ended\r\n        require(now < campaigns[_id].date, 'campaign already ended!');\r\n\r\n        //Fetch the campaign\r\n        Campaign storage _camp = campaigns[_id];\r\n        //Increment the amount\r\n        _camp.amount += msg.value;\r\n        \r\n        //Track the funding payments for that address\r\n        fundingPayments[msg.sender][_id] += msg.value;\r\n        //Track Contributors\r\n        contributors[msg.sender][_id] = true;\r\n        \r\n        \r\n    }\r\n\r\n    //Withdraw from owners GoFundMe Campaign after it ends\r\n    function withdraw(uint _id) public {\r\n        //Campaign must exist\r\n        require(campaignExists[_id] == true, 'campaign must exist!');\r\n        require(campaigns[_id].owner == msg.sender, 'you must own this campaign to withdraw!');\r\n        require(now > campaigns[_id].date, 'campaign must have ended!');\r\n        require(withdrawed[_id] != true, 'already withdrawed from this campaign!');\r\n        //Fetch campaign owner\r\n        address payable campOwner = campaigns[_id].owner;\r\n        //Fetch amount to be sent to campaign owner\r\n        uint campAmount = campaigns[_id].amount;\r\n        //Transfer the Ether to the campaign owner\r\n        campOwner.transfer(campAmount);\r\n        //Change withdrawed to true\r\n        withdrawed[_id] = true;\r\n    }\r\n\r\n}",
  "sourcePath": "C:/Users/jarha/Desktop/gofundme-blockchain/contracts/GoFundMe.sol",
  "compiler": {
    "name": "solc",
    "version": "0.6.0+commit.26b70077.Emscripten.clang"
  },
  "schemaVersion": "3.0.20",
  "updatedAt": "2021-01-13T02:37:37.665Z",
  "networkType": "ethereum",
  "devdoc": {
    "methods": {}
  },
  "userdoc": {
    "methods": {}
  }
}