{
  "contractName": "GoFundMe",
  "abi": [
    {
      "inputs": [],
      "stateMutability": "nonpayable",
      "type": "constructor"
    },
    {
      "inputs": [],
      "name": "admin",
      "outputs": [
        {
          "internalType": "address",
          "name": "",
          "type": "address"
        }
      ],
      "stateMutability": "view",
      "type": "function"
    },
    {
      "inputs": [
        {
          "internalType": "uint256",
          "name": "",
          "type": "uint256"
        }
      ],
      "name": "campaignExists",
      "outputs": [
        {
          "internalType": "bool",
          "name": "",
          "type": "bool"
        }
      ],
      "stateMutability": "view",
      "type": "function"
    },
    {
      "inputs": [
        {
          "internalType": "uint256",
          "name": "",
          "type": "uint256"
        }
      ],
      "name": "campaigns",
      "outputs": [
        {
          "internalType": "address payable",
          "name": "owner",
          "type": "address"
        },
        {
          "internalType": "uint256",
          "name": "date",
          "type": "uint256"
        },
        {
          "internalType": "string",
          "name": "name",
          "type": "string"
        },
        {
          "internalType": "uint256",
          "name": "id",
          "type": "uint256"
        },
        {
          "internalType": "uint256",
          "name": "amount",
          "type": "uint256"
        },
        {
          "internalType": "uint256",
          "name": "targetFunding",
          "type": "uint256"
        }
      ],
      "stateMutability": "view",
      "type": "function"
    },
    {
      "inputs": [
        {
          "internalType": "address",
          "name": "",
          "type": "address"
        },
        {
          "internalType": "uint256",
          "name": "",
          "type": "uint256"
        }
      ],
      "name": "contributors",
      "outputs": [
        {
          "internalType": "bool",
          "name": "",
          "type": "bool"
        }
      ],
      "stateMutability": "view",
      "type": "function"
    },
    {
      "inputs": [
        {
          "internalType": "address",
          "name": "",
          "type": "address"
        },
        {
          "internalType": "uint256",
          "name": "",
          "type": "uint256"
        }
      ],
      "name": "fundingPayments",
      "outputs": [
        {
          "internalType": "uint256",
          "name": "",
          "type": "uint256"
        }
      ],
      "stateMutability": "view",
      "type": "function"
    },
    {
      "inputs": [],
      "name": "nextId",
      "outputs": [
        {
          "internalType": "uint256",
          "name": "",
          "type": "uint256"
        }
      ],
      "stateMutability": "view",
      "type": "function"
    },
    {
      "inputs": [
        {
          "internalType": "uint256",
          "name": "",
          "type": "uint256"
        }
      ],
      "name": "withdrawed",
      "outputs": [
        {
          "internalType": "bool",
          "name": "",
          "type": "bool"
        }
      ],
      "stateMutability": "view",
      "type": "function"
    },
    {
      "inputs": [
        {
          "internalType": "uint256",
          "name": "_duration",
          "type": "uint256"
        },
        {
          "internalType": "string",
          "name": "name",
          "type": "string"
        },
        {
          "internalType": "uint256",
          "name": "targetFunding",
          "type": "uint256"
        }
      ],
      "name": "createCampaign",
      "outputs": [],
      "stateMutability": "nonpayable",
      "type": "function"
    },
    {
      "inputs": [
        {
          "internalType": "uint256",
          "name": "_id",
          "type": "uint256"
        }
      ],
      "name": "fundCampaign",
      "outputs": [],
      "stateMutability": "payable",
      "type": "function"
    },
    {
      "inputs": [
        {
          "internalType": "uint256",
          "name": "_id",
          "type": "uint256"
        }
      ],
      "name": "withdraw",
      "outputs": [],
      "stateMutability": "nonpayable",
      "type": "function"
    },
    {
      "inputs": [
        {
          "internalType": "uint256",
          "name": "_id",
          "type": "uint256"
        }
      ],
      "name": "refund",
      "outputs": [],
      "stateMutability": "nonpayable",
      "type": "function"
    }
  ],
  "bytecode": "0x60806040526000805534801561001457600080fd5b5033600160006101000a81548173ffffffffffffffffffffffffffffffffffffffff021916908373ffffffffffffffffffffffffffffffffffffffff16021790555061128f806100656000396000f3fe60806040526004361061009c5760003560e01c806361b8ce8c1161006457806361b8ce8c146102dc57806373d659b31461030757806392bd38bc1461037a5780639a93edd4146103a8578063f3aa119314610484578063f851a440146104d75761009c565b8063141961bc146100a1578063234364e8146101a4578063278ecde1146102135780632e1a7d4d1461024e5780633b594a6814610289575b600080fd5b3480156100ad57600080fd5b506100da600480360360208110156100c457600080fd5b810190808035906020019092919050505061052e565b604051808773ffffffffffffffffffffffffffffffffffffffff1673ffffffffffffffffffffffffffffffffffffffff16815260200186815260200180602001858152602001848152602001838152602001828103825286818151815260200191508051906020019080838360005b83811015610164578082015181840152602081019050610149565b50505050905090810190601f1680156101915780820380516001836020036101000a031916815260200191505b5097505050505050505060405180910390f35b3480156101b057600080fd5b506101fd600480360360408110156101c757600080fd5b81019080803573ffffffffffffffffffffffffffffffffffffffff16906020019092919080359060200190929190505050610622565b6040518082815260200191505060405180910390f35b34801561021f57600080fd5b5061024c6004803603602081101561023657600080fd5b8101908080359060200190929190505050610647565b005b34801561025a57600080fd5b506102876004803603602081101561027157600080fd5b8101908080359060200190929190505050610890565b005b34801561029557600080fd5b506102c2600480360360208110156102ac57600080fd5b8101908080359060200190929190505050610bbb565b604051808215151515815260200191505060405180910390f35b3480156102e857600080fd5b506102f1610bdb565b6040518082815260200191505060405180910390f35b34801561031357600080fd5b506103606004803603604081101561032a57600080fd5b81019080803573ffffffffffffffffffffffffffffffffffffffff16906020019092919080359060200190929190505050610be1565b604051808215151515815260200191505060405180910390f35b6103a66004803603602081101561039057600080fd5b8101908080359060200190929190505050610c10565b005b3480156103b457600080fd5b50610482600480360360608110156103cb57600080fd5b8101908080359060200190929190803590602001906401000000008111156103f257600080fd5b82018360208201111561040457600080fd5b8035906020019184600183028401116401000000008311171561042657600080fd5b91908080601f016020809104026020016040519081016040528093929190818152602001838380828437600081840152601f19601f82011690508083019250505050505050919291929080359060200190929190505050610f01565b005b34801561049057600080fd5b506104bd600480360360208110156104a757600080fd5b81019080803590602001909291905050506110f6565b604051808215151515815260200191505060405180910390f35b3480156104e357600080fd5b506104ec611116565b604051808273ffffffffffffffffffffffffffffffffffffffff1673ffffffffffffffffffffffffffffffffffffffff16815260200191505060405180910390f35b60026020528060005260406000206000915090508060000160009054906101000a900473ffffffffffffffffffffffffffffffffffffffff1690806001015490806002018054600181600116156101000203166002900480601f0160208091040260200160405190810160405280929190818152602001828054600181600116156101000203166002900480156106065780601f106105db57610100808354040283529160200191610606565b820191906000526020600020905b8154815290600101906020018083116105e957829003601f168201915b5050505050908060030154908060040154908060050154905086565b6005602052816000526040600020602052806000526040600020600091509150505481565b600115156003600083815260200190815260200160002060009054906101000a900460ff161515146106e1576040517f08c379a00000000000000000000000000000000000000000000000000000000081526004018080602001828103825260148152602001807f63616d706169676e206d7573742065786973742100000000000000000000000081525060200191505060405180910390fd5b3373ffffffffffffffffffffffffffffffffffffffff166002600083815260200190815260200160002060000160009054906101000a900473ffffffffffffffffffffffffffffffffffffffff1673ffffffffffffffffffffffffffffffffffffffff16141561079c576040517f08c379a000000000000000000000000000000000000000000000000000000000815260040180806020018281038252602b81526020018061122f602b913960400191505060405180910390fd5b60003390508073ffffffffffffffffffffffffffffffffffffffff166108fc600560003373ffffffffffffffffffffffffffffffffffffffff1673ffffffffffffffffffffffffffffffffffffffff1681526020019081526020016000206000858152602001908152602001600020549081150290604051600060405180830381858888f19350505050158015610837573d6000803e3d6000fd5b50600560003373ffffffffffffffffffffffffffffffffffffffff1673ffffffffffffffffffffffffffffffffffffffff1681526020019081526020016000206000838152602001908152602001600020600090555050565b600115156003600083815260200190815260200160002060009054906101000a900460ff1615151461092a576040517f08c379a00000000000000000000000000000000000000000000000000000000081526004018080602001828103825260148152602001807f63616d706169676e206d7573742065786973742100000000000000000000000081525060200191505060405180910390fd5b3373ffffffffffffffffffffffffffffffffffffffff166002600083815260200190815260200160002060000160009054906101000a900473ffffffffffffffffffffffffffffffffffffffff1673ffffffffffffffffffffffffffffffffffffffff16146109e4576040517f08c379a00000000000000000000000000000000000000000000000000000000081526004018080602001828103825260278152602001806112086027913960400191505060405180910390fd5b60026000828152602001908152602001600020600101544211610a6f576040517f08c379a00000000000000000000000000000000000000000000000000000000081526004018080602001828103825260198152602001807f63616d706169676e206d757374206861766520656e646564210000000000000081525060200191505060405180910390fd5b600115156006600083815260200190815260200160002060009054906101000a900460ff1615151415610aed576040517f08c379a00000000000000000000000000000000000000000000000000000000081526004018080602001828103825260268152602001806111e26026913960400191505060405180910390fd5b60006002600083815260200190815260200160002060000160009054906101000a900473ffffffffffffffffffffffffffffffffffffffff1690506000600260008481526020019081526020016000206004015490508173ffffffffffffffffffffffffffffffffffffffff166108fc829081150290604051600060405180830381858888f19350505050158015610b89573d6000803e3d6000fd5b5060016006600085815260200190815260200160002060006101000a81548160ff021916908315150217905550505050565b60036020528060005260406000206000915054906101000a900460ff1681565b60005481565b60046020528160005260406000206020528060005260406000206000915091509054906101000a900460ff1681565b600115156003600083815260200190815260200160002060009054906101000a900460ff16151514610caa576040517f08c379a00000000000000000000000000000000000000000000000000000000081526004018080602001828103825260148152602001807f63616d706169676e206d7573742065786973742100000000000000000000000081525060200191505060405180910390fd5b3373ffffffffffffffffffffffffffffffffffffffff166002600083815260200190815260200160002060000160009054906101000a900473ffffffffffffffffffffffffffffffffffffffff1673ffffffffffffffffffffffffffffffffffffffff161415610d82576040517f08c379a000000000000000000000000000000000000000000000000000000000815260040180806020018281038252601e8152602001807f63616e6e6f742066756e6420796f7572206f776e2063616d706169676e21000081525060200191505060405180910390fd5b60026000828152602001908152602001600020600101544210610e0d576040517f08c379a00000000000000000000000000000000000000000000000000000000081526004018080602001828103825260178152602001807f63616d706169676e20616c726561647920656e6465642100000000000000000081525060200191505060405180910390fd5b600060026000838152602001908152602001600020905034816004016000828254019250508190555034600560003373ffffffffffffffffffffffffffffffffffffffff1673ffffffffffffffffffffffffffffffffffffffff1681526020019081526020016000206000848152602001908152602001600020600082825401925050819055506001600460003373ffffffffffffffffffffffffffffffffffffffff1673ffffffffffffffffffffffffffffffffffffffff168152602001908152602001600020600084815260200190815260200160002060006101000a81548160ff0219169083151502179055505050565b60011515600360008054815260200190815260200160002060009054906101000a900460ff1615151415610f9d576040517f08c379a00000000000000000000000000000000000000000000000000000000081526004018080602001828103825260188152602001807f63616d706169676e20616c72656164792065786973747321000000000000000081525060200191505060405180910390fd5b6040518060c001604052803373ffffffffffffffffffffffffffffffffffffffff16815260200184815260200183815260200160005481526020016000815260200182815250600260008054815260200190815260200160002060008201518160000160006101000a81548173ffffffffffffffffffffffffffffffffffffffff021916908373ffffffffffffffffffffffffffffffffffffffff16021790555060208201518160010155604082015181600201908051906020019061106492919061113c565b50606082015181600301556080820151816004015560a082015181600501559050506001600360008054815260200190815260200160002060006101000a81548160ff0219169083151502179055506000600660008054815260200190815260200160002060006101000a81548160ff0219169083151502179055506000808154809291906001019190505550505050565b60066020528060005260406000206000915054906101000a900460ff1681565b600160009054906101000a900473ffffffffffffffffffffffffffffffffffffffff1681565b828054600181600116156101000203166002900490600052602060002090601f016020900481019282601f1061117d57805160ff19168380011785556111ab565b828001600101855582156111ab579182015b828111156111aa57825182559160200191906001019061118f565b5b5090506111b891906111bc565b5090565b6111de91905b808211156111da5760008160009055506001016111c2565b5090565b9056fe616c726561647920776974686472617765642066726f6d20746869732063616d706169676e21796f75206d757374206f776e20746869732063616d706169676e20746f2077697468647261772163616e6e6f7420676574206120726566756e642066726f6d20796f7572206f776e2063616d706169676e21a2646970667358221220531ae3fd8d7921d4f8eb8688297138716f40157d1654f4d9f655e88a14315aa564736f6c63430006000033",
  "source": "pragma solidity ^0.6.0;\r\n\r\ncontract GoFundMe  {\r\n    uint public nextId = 0;\r\n    address public admin;\r\n    mapping(uint => Campaign) public campaigns;\r\n    mapping(uint => bool) public campaignExists;\r\n    mapping(address => mapping(uint => bool)) public contributors;\r\n    mapping(address => mapping(uint => uint)) public fundingPayments;\r\n    mapping(uint => bool) public withdrawed;\r\n\r\n    constructor() public {\r\n        admin = msg.sender;\r\n    }\r\n\r\n    struct Campaign {\r\n        address payable owner;\r\n        uint date;\r\n        string name;\r\n        uint id;\r\n        uint amount;\r\n        uint targetFunding;\r\n    }\r\n\r\n    //Creates a GoFundMe Campaign\r\n    function createCampaign(uint _duration, string memory name, uint targetFunding) public {\r\n        require(campaignExists[nextId] != true, 'campaign already exists!');\r\n        campaigns[nextId] = Campaign(msg.sender,  _duration, name, nextId, 0, targetFunding);\r\n        campaignExists[nextId] = true;\r\n        withdrawed[nextId] = false;\r\n        nextId++;\r\n    }\r\n\r\n    //Fund a GoFundMe Campaign\r\n    function fundCampaign(uint _id) external payable {\r\n        //Campaign must exist\r\n        require(campaignExists[_id] == true, 'campaign must exist!');\r\n        //Cannot fund own campaign\r\n        require(campaigns[_id].owner != msg.sender, 'cannot fund your own campaign!');\r\n        //Cannot fund campaign that ended\r\n        require(now < campaigns[_id].date, 'campaign already ended!');\r\n        //Fetch the campaign\r\n        Campaign storage _camp = campaigns[_id];\r\n        //Increment the amount\r\n        _camp.amount += msg.value;\r\n        //Track the funding payments for that address\r\n        fundingPayments[msg.sender][_id] += msg.value;\r\n        //Track Contributors\r\n        contributors[msg.sender][_id] = true;\r\n        \r\n        \r\n    }\r\n\r\n    //Withdraw from owners GoFundMe Campaign after it ends\r\n    function withdraw(uint _id) public {\r\n        //Campaign must exist\r\n        require(campaignExists[_id] == true, 'campaign must exist!');\r\n        require(campaigns[_id].owner == msg.sender, 'you must own this campaign to withdraw!');\r\n        require(now > campaigns[_id].date, 'campaign must have ended!');\r\n        require(withdrawed[_id] != true, 'already withdrawed from this campaign!');\r\n        //Fetch campaign owner\r\n        address payable campOwner = campaigns[_id].owner;\r\n        //Fetch amount to be sent to campaign owner\r\n        uint campAmount = campaigns[_id].amount;\r\n        //Transfer the Ether to the campaign owner\r\n        campOwner.transfer(campAmount);\r\n        //Change withdrawed to true\r\n        withdrawed[_id] = true;\r\n    }\r\n\r\n    function refund(uint _id) public {\r\n        //Campaign must exist\r\n        require(campaignExists[_id] == true, 'campaign must exist!');\r\n        //Cannot refund your own campaign\r\n        require(campaigns[_id].owner != msg.sender, 'cannot get a refund from your own campaign!');\r\n        //Fetch the address requesting a refund\r\n        address payable refunder = msg.sender;\r\n        //Refund the refunder\r\n        refunder.transfer(fundingPayments[msg.sender][_id]);\r\n        //Clear the refunder contributions for that campaign\r\n        delete fundingPayments[msg.sender][_id];\r\n    }\r\n\r\n}",
  "sourcePath": "C:/Users/jarha/Desktop/gofundme-blockchain/contracts/GoFundMe.sol",
  "compiler": {
    "name": "solc",
    "version": "0.6.0+commit.26b70077.Emscripten.clang"
  },
  "schemaVersion": "3.0.20",
  "updatedAt": "2021-01-15T01:10:43.269Z",
  "devdoc": {
    "methods": {}
  },
  "userdoc": {
    "methods": {}
  }
}